{
  "contractName": "DiagnosticCenter",
  "abi": [
    {
      "inputs": [
        {
          "internalType": "address",
          "name": "_ehrContractAddress",
          "type": "address"
        }
      ],
      "stateMutability": "nonpayable",
      "type": "constructor"
    },
    {
      "anonymous": false,
      "inputs": [
        {
          "indexed": true,
          "internalType": "address",
          "name": "patient",
          "type": "address"
        },
        {
          "indexed": true,
          "internalType": "address",
          "name": "diagnosticCenter",
          "type": "address"
        }
      ],
      "name": "DiagnosticCenterAccessGranted",
      "type": "event"
    },
    {
      "anonymous": false,
      "inputs": [
        {
          "indexed": true,
          "internalType": "address",
          "name": "patient",
          "type": "address"
        },
        {
          "indexed": false,
          "internalType": "string",
          "name": "ipfsHash",
          "type": "string"
        },
        {
          "indexed": false,
          "internalType": "string",
          "name": "category",
          "type": "string"
        },
        {
          "indexed": false,
          "internalType": "uint256",
          "name": "timestamp",
          "type": "uint256"
        }
      ],
      "name": "DiagnosticReportUploaded",
      "type": "event"
    },
    {
      "inputs": [
        {
          "internalType": "address",
          "name": "diagnosticCenter",
          "type": "address"
        }
      ],
      "name": "grantAccessToDiagnosticCenter",
      "outputs": [],
      "stateMutability": "nonpayable",
      "type": "function"
    },
    {
      "inputs": [
        {
          "internalType": "address",
          "name": "patient",
          "type": "address"
        },
        {
          "internalType": "string",
          "name": "ipfsHash",
          "type": "string"
        },
        {
          "internalType": "string",
          "name": "category",
          "type": "string"
        }
      ],
      "name": "uploadDiagnosticReport",
      "outputs": [],
      "stateMutability": "nonpayable",
      "type": "function"
    },
    {
      "inputs": [],
      "name": "getMyDiagnosticReports",
      "outputs": [
        {
          "internalType": "string[]",
          "name": "",
          "type": "string[]"
        },
        {
          "internalType": "string[]",
          "name": "",
          "type": "string[]"
        },
        {
          "internalType": "uint256[]",
          "name": "",
          "type": "uint256[]"
        }
      ],
      "stateMutability": "view",
      "type": "function",
      "constant": true
    },
    {
      "inputs": [],
      "name": "getPatientsWhoGrantedAccess",
      "outputs": [
        {
          "internalType": "address[]",
          "name": "",
          "type": "address[]"
        }
      ],
      "stateMutability": "view",
      "type": "function",
      "constant": true
    },
    {
      "inputs": [
        {
          "internalType": "address",
          "name": "patient",
          "type": "address"
        }
      ],
      "name": "getReportsForPatient",
      "outputs": [
        {
          "internalType": "string[]",
          "name": "",
          "type": "string[]"
        },
        {
          "internalType": "string[]",
          "name": "",
          "type": "string[]"
        },
        {
          "internalType": "uint256[]",
          "name": "",
          "type": "uint256[]"
        }
      ],
      "stateMutability": "view",
      "type": "function",
      "constant": true
    },
    {
      "inputs": [
        {
          "internalType": "address",
          "name": "patient",
          "type": "address"
        },
        {
          "internalType": "address",
          "name": "center",
          "type": "address"
        }
      ],
      "name": "isDiagnosticCenterAuthorized",
      "outputs": [
        {
          "internalType": "bool",
          "name": "",
          "type": "bool"
        }
      ],
      "stateMutability": "view",
      "type": "function",
      "constant": true
    },
    {
      "inputs": [
        {
          "internalType": "address",
          "name": "patient",
          "type": "address"
        },
        {
          "internalType": "address",
          "name": "diagnosticCenter",
          "type": "address"
        }
      ],
      "name": "hasDiagnosticAccess",
      "outputs": [
        {
          "internalType": "bool",
          "name": "",
          "type": "bool"
        }
      ],
      "stateMutability": "view",
      "type": "function",
      "constant": true
    }
  ],
  "bytecode": "0x60806040523480156200001157600080fd5b5060405162002499380380620024998339818101604052810190620000379190620000e8565b806000806101000a81548173ffffffffffffffffffffffffffffffffffffffff021916908373ffffffffffffffffffffffffffffffffffffffff160217905550506200011a565b600080fd5b600073ffffffffffffffffffffffffffffffffffffffff82169050919050565b6000620000b08262000083565b9050919050565b620000c281620000a3565b8114620000ce57600080fd5b50565b600081519050620000e281620000b7565b92915050565b6000602082840312156200010157620001006200007e565b5b60006200011184828501620000d1565b91505092915050565b61236f806200012a6000396000f3fe608060405234801561001057600080fd5b506004361061007d5760003560e01c8063a0275e9f1161005b578063a0275e9f14610100578063b348a3f314610120578063b48fa7441461013e578063c7486f981461016e5761007d565b806324239ccf1461008257806326546b391461009e5780634181bb4a146100ce575b600080fd5b61009c600480360381019061009791906115fd565b61018a565b005b6100b860048036038101906100b39190611688565b610472565b6040516100c591906116e3565b60405180910390f35b6100e860048036038101906100e391906116fe565b610506565b6040516100f793929190611934565b60405180910390f35b61010861091f565b60405161011793929190611934565b60405180910390f35b610128610d74565b6040516101359190611a3e565b60405180910390f35b61015860048036038101906101539190611688565b611080565b60405161016591906116e3565b60405180910390f35b610188600480360381019061018391906116fe565b611114565b005b7fdc3b9d7fd28cfc7a70a999f2eb4b60672e6b88c8ed3280f4fb467b501b62b92e60008054906101000a900473ffffffffffffffffffffffffffffffffffffffff1673ffffffffffffffffffffffffffffffffffffffff166344276733856040518263ffffffff1660e01b81526004016102049190611a6f565b600060405180830381865afa158015610221573d6000803e3d6000fd5b505050506040513d6000823e3d601f19601f8201168201806040525081019061024a9190611afa565b8051906020012014610291576040517f08c379a000000000000000000000000000000000000000000000000000000000815260040161028890611ba0565b60405180910390fd5b600160008473ffffffffffffffffffffffffffffffffffffffff1673ffffffffffffffffffffffffffffffffffffffff16815260200190815260200160002060003373ffffffffffffffffffffffffffffffffffffffff1673ffffffffffffffffffffffffffffffffffffffff16815260200190815260200160002060009054906101000a900460ff1661035a576040517f08c379a000000000000000000000000000000000000000000000000000000000815260040161035190611c0c565b60405180910390fd5b60006040518060600160405280848152602001838152602001428152509050600260008573ffffffffffffffffffffffffffffffffffffffff1673ffffffffffffffffffffffffffffffffffffffff16815260200190815260200160002081908060018154018082558091505060019003906000526020600020906003020160009091909190915060008201518160000190816103f79190611e38565b50602082015181600101908161040d9190611e38565b506040820151816002015550508373ffffffffffffffffffffffffffffffffffffffff167f305de03d1cefdab49a829036692d061f2a017821ee6ee33eff5c1ff054eba65584844260405161046493929190611f52565b60405180910390a250505050565b6000600160008473ffffffffffffffffffffffffffffffffffffffff1673ffffffffffffffffffffffffffffffffffffffff16815260200190815260200160002060008373ffffffffffffffffffffffffffffffffffffffff1673ffffffffffffffffffffffffffffffffffffffff16815260200190815260200160002060009054906101000a900460ff16905092915050565b6060806060600160008573ffffffffffffffffffffffffffffffffffffffff1673ffffffffffffffffffffffffffffffffffffffff16815260200190815260200160002060003373ffffffffffffffffffffffffffffffffffffffff1673ffffffffffffffffffffffffffffffffffffffff16815260200190815260200160002060009054906101000a900460ff166105d4576040517f08c379a00000000000000000000000000000000000000000000000000000000081526004016105cb90611fe3565b60405180910390fd5b6000600260008673ffffffffffffffffffffffffffffffffffffffff1673ffffffffffffffffffffffffffffffffffffffff168152602001908152602001600020905060008180549050905060008167ffffffffffffffff81111561063c5761063b6114d2565b5b60405190808252806020026020018201604052801561066f57816020015b606081526020019060019003908161065a5790505b50905060008267ffffffffffffffff81111561068e5761068d6114d2565b5b6040519080825280602002602001820160405280156106c157816020015b60608152602001906001900390816106ac5790505b50905060008367ffffffffffffffff8111156106e0576106df6114d2565b5b60405190808252806020026020018201604052801561070e5781602001602082028036833780820191505090505b50905060005b848110156109095785818154811061072f5761072e612003565b5b9060005260206000209060030201600001805461074b90611c5b565b80601f016020809104026020016040519081016040528092919081815260200182805461077790611c5b565b80156107c45780601f10610799576101008083540402835291602001916107c4565b820191906000526020600020905b8154815290600101906020018083116107a757829003601f168201915b50505050508482815181106107dc576107db612003565b5b60200260200101819052508581815481106107fa576107f9612003565b5b9060005260206000209060030201600101805461081690611c5b565b80601f016020809104026020016040519081016040528092919081815260200182805461084290611c5b565b801561088f5780601f106108645761010080835404028352916020019161088f565b820191906000526020600020905b81548152906001019060200180831161087257829003601f168201915b50505050508382815181106108a7576108a6612003565b5b60200260200101819052508581815481106108c5576108c4612003565b5b9060005260206000209060030201600201548282815181106108ea576108e9612003565b5b602002602001018181525050808061090190612061565b915050610714565b5082828297509750975050505050509193909250565b60608060607fdc3b9d7fd28cfc7a70a999f2eb4b60672e6b88c8ed3280f4fb467b501b62b92e60008054906101000a900473ffffffffffffffffffffffffffffffffffffffff1673ffffffffffffffffffffffffffffffffffffffff166344276733336040518263ffffffff1660e01b815260040161099e9190611a6f565b600060405180830381865afa1580156109bb573d6000803e3d6000fd5b505050506040513d6000823e3d601f19601f820116820180604052508101906109e49190611afa565b8051906020012014610a2b576040517f08c379a0000000000000000000000000000000000000000000000000000000008152600401610a22906120f5565b60405180910390fd5b6000600260003373ffffffffffffffffffffffffffffffffffffffff1673ffffffffffffffffffffffffffffffffffffffff168152602001908152602001600020905060008180549050905060008167ffffffffffffffff811115610a9357610a926114d2565b5b604051908082528060200260200182016040528015610ac657816020015b6060815260200190600190039081610ab15790505b50905060008267ffffffffffffffff811115610ae557610ae46114d2565b5b604051908082528060200260200182016040528015610b1857816020015b6060815260200190600190039081610b035790505b50905060008367ffffffffffffffff811115610b3757610b366114d2565b5b604051908082528060200260200182016040528015610b655781602001602082028036833780820191505090505b50905060005b84811015610d6057858181548110610b8657610b85612003565b5b90600052602060002090600302016000018054610ba290611c5b565b80601f0160208091040260200160405190810160405280929190818152602001828054610bce90611c5b565b8015610c1b5780601f10610bf057610100808354040283529160200191610c1b565b820191906000526020600020905b815481529060010190602001808311610bfe57829003601f168201915b5050505050848281518110610c3357610c32612003565b5b6020026020010181905250858181548110610c5157610c50612003565b5b90600052602060002090600302016001018054610c6d90611c5b565b80601f0160208091040260200160405190810160405280929190818152602001828054610c9990611c5b565b8015610ce65780601f10610cbb57610100808354040283529160200191610ce6565b820191906000526020600020905b815481529060010190602001808311610cc957829003601f168201915b5050505050838281518110610cfe57610cfd612003565b5b6020026020010181905250858181548110610d1c57610d1b612003565b5b906000526020600020906003020160020154828281518110610d4157610d40612003565b5b6020026020010181815250508080610d5890612061565b915050610b6b565b508282829750975097505050505050909192565b606060008060009054906101000a900473ffffffffffffffffffffffffffffffffffffffff1673ffffffffffffffffffffffffffffffffffffffff166318a231a96040518163ffffffff1660e01b8152600401600060405180830381865afa158015610de4573d6000803e3d6000fd5b505050506040513d6000823e3d601f19601f82011682018060405250810190610e0d91906121f2565b90506000805b8251811015610ee75760016000848381518110610e3357610e32612003565b5b602002602001015173ffffffffffffffffffffffffffffffffffffffff1673ffffffffffffffffffffffffffffffffffffffff16815260200190815260200160002060003373ffffffffffffffffffffffffffffffffffffffff1673ffffffffffffffffffffffffffffffffffffffff16815260200190815260200160002060009054906101000a900460ff1615610ed4578180610ed090612061565b9250505b8080610edf90612061565b915050610e13565b5060008167ffffffffffffffff811115610f0457610f036114d2565b5b604051908082528060200260200182016040528015610f325781602001602082028036833780820191505090505b5090506000805b84518110156110755760016000868381518110610f5957610f58612003565b5b602002602001015173ffffffffffffffffffffffffffffffffffffffff1673ffffffffffffffffffffffffffffffffffffffff16815260200190815260200160002060003373ffffffffffffffffffffffffffffffffffffffff1673ffffffffffffffffffffffffffffffffffffffff16815260200190815260200160002060009054906101000a900460ff161561106257848181518110610ffe57610ffd612003565b5b602002602001015183838151811061101957611018612003565b5b602002602001019073ffffffffffffffffffffffffffffffffffffffff16908173ffffffffffffffffffffffffffffffffffffffff1681525050818061105e90612061565b9250505b808061106d90612061565b915050610f39565b508194505050505090565b6000600160008473ffffffffffffffffffffffffffffffffffffffff1673ffffffffffffffffffffffffffffffffffffffff16815260200190815260200160002060008373ffffffffffffffffffffffffffffffffffffffff1673ffffffffffffffffffffffffffffffffffffffff16815260200190815260200160002060009054906101000a900460ff16905092915050565b7fdc3b9d7fd28cfc7a70a999f2eb4b60672e6b88c8ed3280f4fb467b501b62b92e60008054906101000a900473ffffffffffffffffffffffffffffffffffffffff1673ffffffffffffffffffffffffffffffffffffffff166344276733336040518263ffffffff1660e01b815260040161118e9190611a6f565b600060405180830381865afa1580156111ab573d6000803e3d6000fd5b505050506040513d6000823e3d601f19601f820116820180604052508101906111d49190611afa565b805190602001201461121b576040517f08c379a0000000000000000000000000000000000000000000000000000000008152600401611212906120f5565b60405180910390fd5b600073ffffffffffffffffffffffffffffffffffffffff168173ffffffffffffffffffffffffffffffffffffffff160361128a576040517f08c379a0000000000000000000000000000000000000000000000000000000008152600401611281906122ad565b60405180910390fd5b600160003373ffffffffffffffffffffffffffffffffffffffff1673ffffffffffffffffffffffffffffffffffffffff16815260200190815260200160002060008273ffffffffffffffffffffffffffffffffffffffff1673ffffffffffffffffffffffffffffffffffffffff16815260200190815260200160002060009054906101000a900460ff1615611354576040517f08c379a000000000000000000000000000000000000000000000000000000000815260040161134b90612319565b60405180910390fd5b60018060003373ffffffffffffffffffffffffffffffffffffffff1673ffffffffffffffffffffffffffffffffffffffff16815260200190815260200160002060008373ffffffffffffffffffffffffffffffffffffffff1673ffffffffffffffffffffffffffffffffffffffff16815260200190815260200160002060006101000a81548160ff0219169083151502179055508073ffffffffffffffffffffffffffffffffffffffff163373ffffffffffffffffffffffffffffffffffffffff167ffbe7941f9d42e0ad0ad9e4f8ccb73ff8cedb217a4cf5da374305b6c202d03bf560405160405180910390a350565b6000604051905090565b600080fd5b600080fd5b600073ffffffffffffffffffffffffffffffffffffffff82169050919050565b600061148482611459565b9050919050565b61149481611479565b811461149f57600080fd5b50565b6000813590506114b18161148b565b92915050565b600080fd5b600080fd5b6000601f19601f8301169050919050565b7f4e487b7100000000000000000000000000000000000000000000000000000000600052604160045260246000fd5b61150a826114c1565b810181811067ffffffffffffffff82111715611529576115286114d2565b5b80604052505050565b600061153c611445565b90506115488282611501565b919050565b600067ffffffffffffffff821115611568576115676114d2565b5b611571826114c1565b9050602081019050919050565b82818337600083830152505050565b60006115a061159b8461154d565b611532565b9050828152602081018484840111156115bc576115bb6114bc565b5b6115c784828561157e565b509392505050565b600082601f8301126115e4576115e36114b7565b5b81356115f484826020860161158d565b91505092915050565b6000806000606084860312156116165761161561144f565b5b6000611624868287016114a2565b935050602084013567ffffffffffffffff81111561164557611644611454565b5b611651868287016115cf565b925050604084013567ffffffffffffffff81111561167257611671611454565b5b61167e868287016115cf565b9150509250925092565b6000806040838503121561169f5761169e61144f565b5b60006116ad858286016114a2565b92505060206116be858286016114a2565b9150509250929050565b60008115159050919050565b6116dd816116c8565b82525050565b60006020820190506116f860008301846116d4565b92915050565b6000602082840312156117145761171361144f565b5b6000611722848285016114a2565b91505092915050565b600081519050919050565b600082825260208201905092915050565b6000819050602082019050919050565b600081519050919050565b600082825260208201905092915050565b60005b83811015611791578082015181840152602081019050611776565b60008484015250505050565b60006117a882611757565b6117b28185611762565b93506117c2818560208601611773565b6117cb816114c1565b840191505092915050565b60006117e2838361179d565b905092915050565b6000602082019050919050565b60006118028261172b565b61180c8185611736565b93508360208202850161181e85611747565b8060005b8581101561185a578484038952815161183b85826117d6565b9450611846836117ea565b925060208a01995050600181019050611822565b50829750879550505050505092915050565b600081519050919050565b600082825260208201905092915050565b6000819050602082019050919050565b6000819050919050565b6118ab81611898565b82525050565b60006118bd83836118a2565b60208301905092915050565b6000602082019050919050565b60006118e18261186c565b6118eb8185611877565b93506118f683611888565b8060005b8381101561192757815161190e88826118b1565b9750611919836118c9565b9250506001810190506118fa565b5085935050505092915050565b6000606082019050818103600083015261194e81866117f7565b9050818103602083015261196281856117f7565b9050818103604083015261197681846118d6565b9050949350505050565b600081519050919050565b600082825260208201905092915050565b6000819050602082019050919050565b6119b581611479565b82525050565b60006119c783836119ac565b60208301905092915050565b6000602082019050919050565b60006119eb82611980565b6119f5818561198b565b9350611a008361199c565b8060005b83811015611a31578151611a1888826119bb565b9750611a23836119d3565b925050600181019050611a04565b5085935050505092915050565b60006020820190508181036000830152611a5881846119e0565b905092915050565b611a6981611479565b82525050565b6000602082019050611a846000830184611a60565b92915050565b6000611a9d611a988461154d565b611532565b905082815260208101848484011115611ab957611ab86114bc565b5b611ac4848285611773565b509392505050565b600082601f830112611ae157611ae06114b7565b5b8151611af1848260208601611a8a565b91505092915050565b600060208284031215611b1057611b0f61144f565b5b600082015167ffffffffffffffff811115611b2e57611b2d611454565b5b611b3a84828501611acc565b91505092915050565b600082825260208201905092915050565b7f496e76616c69642070617469656e742061646472657373000000000000000000600082015250565b6000611b8a601783611b43565b9150611b9582611b54565b602082019050919050565b60006020820190508181036000830152611bb981611b7d565b9050919050565b7f416363657373206e6f74206772616e7465642062792070617469656e74000000600082015250565b6000611bf6601d83611b43565b9150611c0182611bc0565b602082019050919050565b60006020820190508181036000830152611c2581611be9565b9050919050565b7f4e487b7100000000000000000000000000000000000000000000000000000000600052602260045260246000fd5b60006002820490506001821680611c7357607f821691505b602082108103611c8657611c85611c2c565b5b50919050565b60008190508160005260206000209050919050565b60006020601f8301049050919050565b600082821b905092915050565b600060088302611cee7fffffffffffffffffffffffffffffffffffffffffffffffffffffffffffffffff82611cb1565b611cf88683611cb1565b95508019841693508086168417925050509392505050565b6000819050919050565b6000611d35611d30611d2b84611898565b611d10565b611898565b9050919050565b6000819050919050565b611d4f83611d1a565b611d63611d5b82611d3c565b848454611cbe565b825550505050565b600090565b611d78611d6b565b611d83818484611d46565b505050565b5b81811015611da757611d9c600082611d70565b600181019050611d89565b5050565b601f821115611dec57611dbd81611c8c565b611dc684611ca1565b81016020851015611dd5578190505b611de9611de185611ca1565b830182611d88565b50505b505050565b600082821c905092915050565b6000611e0f60001984600802611df1565b1980831691505092915050565b6000611e288383611dfe565b9150826002028217905092915050565b611e4182611757565b67ffffffffffffffff811115611e5a57611e596114d2565b5b611e648254611c5b565b611e6f828285611dab565b600060209050601f831160018114611ea25760008415611e90578287015190505b611e9a8582611e1c565b865550611f02565b601f198416611eb086611c8c565b60005b82811015611ed857848901518255600182019150602085019450602081019050611eb3565b86831015611ef55784890151611ef1601f891682611dfe565b8355505b6001600288020188555050505b505050505050565b6000611f1582611757565b611f1f8185611b43565b9350611f2f818560208601611773565b611f38816114c1565b840191505092915050565b611f4c81611898565b82525050565b60006060820190508181036000830152611f6c8186611f0a565b90508181036020830152611f808185611f0a565b9050611f8f6040830184611f43565b949350505050565b7f4e6f7420617574686f72697a656420627920746869732070617469656e740000600082015250565b6000611fcd601e83611b43565b9150611fd882611f97565b602082019050919050565b60006020820190508181036000830152611ffc81611fc0565b9050919050565b7f4e487b7100000000000000000000000000000000000000000000000000000000600052603260045260246000fd5b7f4e487b7100000000000000000000000000000000000000000000000000000000600052601160045260246000fd5b600061206c82611898565b91507fffffffffffffffffffffffffffffffffffffffffffffffffffffffffffffffff820361209e5761209d612032565b5b600182019050919050565b7f4f6e6c792070617469656e747320616c6c6f7765640000000000000000000000600082015250565b60006120df601583611b43565b91506120ea826120a9565b602082019050919050565b6000602082019050818103600083015261210e816120d2565b9050919050565b600067ffffffffffffffff8211156121305761212f6114d2565b5b602082029050602081019050919050565b600080fd5b6000815190506121558161148b565b92915050565b600061216e61216984612115565b611532565b9050808382526020820190506020840283018581111561219157612190612141565b5b835b818110156121ba57806121a68882612146565b845260208401935050602081019050612193565b5050509392505050565b600082601f8301126121d9576121d86114b7565b5b81516121e984826020860161215b565b91505092915050565b6000602082840312156122085761220761144f565b5b600082015167ffffffffffffffff81111561222657612225611454565b5b612232848285016121c4565b91505092915050565b7f496e76616c696420646961676e6f737469632063656e7465722061646472657360008201527f7300000000000000000000000000000000000000000000000000000000000000602082015250565b6000612297602183611b43565b91506122a28261223b565b604082019050919050565b600060208201905081810360008301526122c68161228a565b9050919050565b7f41636365737320616c7265616479206772616e74656400000000000000000000600082015250565b6000612303601683611b43565b915061230e826122cd565b602082019050919050565b60006020820190508181036000830152612332816122f6565b905091905056fea26469706673582212208a4cb9350c6f2ada6abd24a682ecbbfd2248e1cba2613710c13b72e6921a35d064736f6c63430008130033",
  "immutableReferences": {},
  "source": "// SPDX-License-Identifier: MIT\r\npragma solidity ^0.8.19;\r\n\r\nimport \"./EHR.sol\"; // Ensure EHR.sol has getRole and getAllPatients functions\r\n\r\ncontract DiagnosticCenter {\r\n    EHR private ehrContract;\r\n\r\n    struct DiagnosticReport {\r\n        string ipfsHash;\r\n        string category;\r\n        uint256 timestamp;\r\n    }\r\n\r\n    // Mapping of patient => diagnostic center => access status\r\n    mapping(address => mapping(address => bool)) private accessGranted;\r\n\r\n    // Mapping of patient => array of diagnostic reports\r\n    mapping(address => DiagnosticReport[]) private diagnosticReports;\r\n\r\n    event DiagnosticReportUploaded(address indexed patient, string ipfsHash, string category, uint256 timestamp);\r\n    event DiagnosticCenterAccessGranted(address indexed patient, address indexed diagnosticCenter);\r\n\r\n    modifier onlyPatient() {\r\n        require(\r\n            keccak256(bytes(ehrContract.getRole(msg.sender))) == keccak256(\"patient\"),\r\n            \"Only patients allowed\"\r\n        );\r\n        _;\r\n    }\r\n\r\n    constructor(address _ehrContractAddress) {\r\n        ehrContract = EHR(_ehrContractAddress);\r\n    }\r\n\r\n    // Patient grants access to a diagnostic center\r\n    function grantAccessToDiagnosticCenter(address diagnosticCenter) public onlyPatient {\r\n        require(diagnosticCenter != address(0), \"Invalid diagnostic center address\");\r\n        require(!accessGranted[msg.sender][diagnosticCenter], \"Access already granted\");\r\n\r\n        accessGranted[msg.sender][diagnosticCenter] = true;\r\n        emit DiagnosticCenterAccessGranted(msg.sender, diagnosticCenter);\r\n    }\r\n\r\n    // Diagnostic center uploads a report for a patient\r\n    function uploadDiagnosticReport(address patient, string memory ipfsHash, string memory category) public {\r\n        require(\r\n            keccak256(bytes(ehrContract.getRole(patient))) == keccak256(\"patient\"),\r\n            \"Invalid patient address\"\r\n        );\r\n        require(accessGranted[patient][msg.sender], \"Access not granted by patient\");\r\n\r\n        DiagnosticReport memory newReport = DiagnosticReport(ipfsHash, category, block.timestamp);\r\n        diagnosticReports[patient].push(newReport);\r\n\r\n        emit DiagnosticReportUploaded(patient, ipfsHash, category, block.timestamp);\r\n    }\r\n\r\n    // Patient views their own diagnostic reports\r\n    function getMyDiagnosticReports() public view onlyPatient returns (string[] memory, string[] memory, uint256[] memory) {\r\n        DiagnosticReport[] storage reports = diagnosticReports[msg.sender];\r\n        uint256 totalReports = reports.length;\r\n\r\n        string[] memory ipfsHashes = new string[](totalReports);\r\n        string[] memory categories = new string[](totalReports);\r\n        uint256[] memory timestamps = new uint256[](totalReports);\r\n\r\n        for (uint256 i = 0; i < totalReports; i++) {\r\n            ipfsHashes[i] = reports[i].ipfsHash;\r\n            categories[i] = reports[i].category;\r\n            timestamps[i] = reports[i].timestamp;\r\n        }\r\n\r\n        return (ipfsHashes, categories, timestamps);\r\n    }\r\n\r\n    // Diagnostic center gets all patients who granted access to them\r\n    function getPatientsWhoGrantedAccess() public view returns (address[] memory) {\r\n        address[] memory allPatients = ehrContract.getAllPatients();\r\n        uint256 count = 0;\r\n\r\n        // First, count how many patients granted access\r\n        for (uint256 i = 0; i < allPatients.length; i++) {\r\n            if (accessGranted[allPatients[i]][msg.sender]) {\r\n                count++;\r\n            }\r\n        }\r\n\r\n        // Now create the array of those patients\r\n        address[] memory grantedPatients = new address[](count);\r\n        uint256 index = 0;\r\n\r\n        for (uint256 i = 0; i < allPatients.length; i++) {\r\n            if (accessGranted[allPatients[i]][msg.sender]) {\r\n                grantedPatients[index] = allPatients[i];\r\n                index++;\r\n            }\r\n        }\r\n\r\n        return grantedPatients;\r\n    }\r\n\r\n    // View diagnostic reports for a specific patient (only if access granted)\r\n    function getReportsForPatient(address patient) public view returns (string[] memory, string[] memory, uint256[] memory) {\r\n        require(accessGranted[patient][msg.sender], \"Not authorized by this patient\");\r\n\r\n        DiagnosticReport[] storage reports = diagnosticReports[patient];\r\n        uint256 totalReports = reports.length;\r\n\r\n        string[] memory ipfsHashes = new string[](totalReports);\r\n        string[] memory categories = new string[](totalReports);\r\n        uint256[] memory timestamps = new uint256[](totalReports);\r\n\r\n        for (uint256 i = 0; i < totalReports; i++) {\r\n            ipfsHashes[i] = reports[i].ipfsHash;\r\n            categories[i] = reports[i].category;\r\n            timestamps[i] = reports[i].timestamp;\r\n        }\r\n\r\n        return (ipfsHashes, categories, timestamps);\r\n    }\r\n\r\n    // Check if a specific diagnostic center is authorized by a patient\r\n    function isDiagnosticCenterAuthorized(address patient, address center) public view returns (bool) {\r\n        return accessGranted[patient][center];\r\n    }\r\n\r\n   function hasDiagnosticAccess(address patient, address diagnosticCenter) public view returns (bool) {\r\n    return accessGranted[patient][diagnosticCenter];\r\n}\r\n\r\n\r\n}\r\n",
  "sourcePath": "C:\\Users\\jyosh\\OneDrive\\Desktop\\ehr app\\truffle\\contracts\\DiagnosticCenter.sol",
  "compiler": {
    "name": "solc",
    "version": "0.8.19+commit.7dd6d404.Emscripten.clang"
  },
  "schemaVersion": "3.4.16",
  "updatedAt": "2025-04-17T00:12:32.723Z",
  "networkType": "ethereum",
  "devdoc": {
    "kind": "dev",
    "methods": {},
    "version": 1
  },
  "userdoc": {
    "kind": "user",
    "methods": {},
    "version": 1
  }
}