{
  "contractName": "EHR",
  "abi": [
    {
      "inputs": [
        {
          "internalType": "uint256",
          "name": "",
          "type": "uint256"
        }
      ],
      "name": "patientAddresses",
      "outputs": [
        {
          "internalType": "address",
          "name": "",
          "type": "address"
        }
      ],
      "stateMutability": "view",
      "type": "function",
      "constant": true
    },
    {
      "inputs": [
        {
          "internalType": "address",
          "name": "",
          "type": "address"
        }
      ],
      "name": "roles",
      "outputs": [
        {
          "internalType": "string",
          "name": "",
          "type": "string"
        }
      ],
      "stateMutability": "view",
      "type": "function",
      "constant": true
    },
    {
      "inputs": [
        {
          "internalType": "string",
          "name": "role",
          "type": "string"
        }
      ],
      "name": "register",
      "outputs": [],
      "stateMutability": "nonpayable",
      "type": "function"
    },
    {
      "inputs": [
        {
          "internalType": "string",
          "name": "ipfsHash",
          "type": "string"
        },
        {
          "internalType": "string",
          "name": "category",
          "type": "string"
        }
      ],
      "name": "addRecord",
      "outputs": [],
      "stateMutability": "nonpayable",
      "type": "function"
    },
    {
      "inputs": [
        {
          "internalType": "address",
          "name": "doctor",
          "type": "address"
        },
        {
          "internalType": "uint256",
          "name": "recordIndex",
          "type": "uint256"
        }
      ],
      "name": "giveAccessToDoctor",
      "outputs": [],
      "stateMutability": "nonpayable",
      "type": "function"
    },
    {
      "inputs": [
        {
          "internalType": "address",
          "name": "patientAddr",
          "type": "address"
        }
      ],
      "name": "getRecords",
      "outputs": [
        {
          "components": [
            {
              "internalType": "string",
              "name": "ipfsHash",
              "type": "string"
            },
            {
              "internalType": "string",
              "name": "category",
              "type": "string"
            },
            {
              "internalType": "uint256",
              "name": "timestamp",
              "type": "uint256"
            }
          ],
          "internalType": "struct EHR.Record[]",
          "name": "",
          "type": "tuple[]"
        }
      ],
      "stateMutability": "view",
      "type": "function",
      "constant": true
    },
    {
      "inputs": [],
      "name": "getAccessibleRecords",
      "outputs": [
        {
          "internalType": "address[]",
          "name": "",
          "type": "address[]"
        },
        {
          "internalType": "string[]",
          "name": "",
          "type": "string[]"
        },
        {
          "internalType": "string[]",
          "name": "",
          "type": "string[]"
        },
        {
          "internalType": "uint256[]",
          "name": "",
          "type": "uint256[]"
        }
      ],
      "stateMutability": "view",
      "type": "function",
      "constant": true
    },
    {
      "inputs": [
        {
          "internalType": "address",
          "name": "patient",
          "type": "address"
        },
        {
          "internalType": "address",
          "name": "doctor",
          "type": "address"
        }
      ],
      "name": "isAuthorizedForAny",
      "outputs": [
        {
          "internalType": "bool",
          "name": "",
          "type": "bool"
        }
      ],
      "stateMutability": "view",
      "type": "function",
      "constant": true
    },
    {
      "inputs": [],
      "name": "getAllPatients",
      "outputs": [
        {
          "internalType": "address[]",
          "name": "",
          "type": "address[]"
        }
      ],
      "stateMutability": "view",
      "type": "function",
      "constant": true
    },
    {
      "inputs": [
        {
          "internalType": "address",
          "name": "user",
          "type": "address"
        }
      ],
      "name": "getRole",
      "outputs": [
        {
          "internalType": "string",
          "name": "",
          "type": "string"
        }
      ],
      "stateMutability": "view",
      "type": "function",
      "constant": true
    },
    {
      "inputs": [
        {
          "internalType": "address",
          "name": "patient",
          "type": "address"
        }
      ],
      "name": "getAccessibleRecordIndices",
      "outputs": [
        {
          "internalType": "uint256[]",
          "name": "",
          "type": "uint256[]"
        }
      ],
      "stateMutability": "view",
      "type": "function",
      "constant": true
    }
  ],
  "bytecode": "0x608060405234801561001057600080fd5b5061252e806100206000396000f3fe608060405234801561001057600080fd5b50600436106100a95760003560e01c8063a0076e8411610071578063a0076e841461017d578063a414a3a9146101ad578063b40f1691146101dd578063c94d48811461020d578063c959624814610229578063f2c298be14610245576100a9565b806318a231a9146100ae57806320a09aea146100cc57806344276733146100ed5780636b24460a1461011d578063993746421461014d575b600080fd5b6100b6610261565b6040516100c391906116d4565b60405180910390f35b6100d46102ef565b6040516100e49493929190611910565b60405180910390f35b610107600480360381019061010291906119b1565b610969565b6040516101149190611a28565b60405180910390f35b610137600480360381019061013291906119b1565b610a3a565b6040516101449190611a4a565b60405180910390f35b610167600480360381019061016291906119b1565b610b10565b6040516101749190611a28565b60405180910390f35b610197600480360381019061019291906119b1565b610bb0565b6040516101a49190611b85565b60405180910390f35b6101c760048036038101906101c29190611ba7565b610dfd565b6040516101d49190611c02565b60405180910390f35b6101f760048036038101906101f29190611c49565b610e8b565b6040516102049190611c85565b60405180910390f35b61022760048036038101906102229190611ca0565b610eca565b005b610243600480360381019061023e9190611e15565b611278565b005b61025f600480360381019061025a9190611e8d565b6113f4565b005b606060028054806020026020016040519081016040528092919081815260200182805480156102e557602002820191906000526020600020905b8160009054906101000a900473ffffffffffffffffffffffffffffffffffffffff1673ffffffffffffffffffffffffffffffffffffffff168152602001906001019080831161029b575b5050505050905090565b6060806060806000805b6002805490508110156104385760008060006002848154811061031f5761031e611ed6565b5b9060005260206000200160009054906101000a900473ffffffffffffffffffffffffffffffffffffffff1673ffffffffffffffffffffffffffffffffffffffff1673ffffffffffffffffffffffffffffffffffffffff16815260200190815260200160002060020160003373ffffffffffffffffffffffffffffffffffffffff1673ffffffffffffffffffffffffffffffffffffffff16815260200190815260200160002080548060200260200160405190810160405280929190818152602001828054801561040e57602002820191906000526020600020905b8154815260200190600101908083116103fa575b505050505090508051836104229190611f34565b925050808061043090611f68565b9150506102f9565b5060008167ffffffffffffffff81111561045557610454611cea565b5b6040519080825280602002602001820160405280156104835781602001602082028036833780820191505090505b50905060008267ffffffffffffffff8111156104a2576104a1611cea565b5b6040519080825280602002602001820160405280156104d557816020015b60608152602001906001900390816104c05790505b50905060008367ffffffffffffffff8111156104f4576104f3611cea565b5b60405190808252806020026020018201604052801561052757816020015b60608152602001906001900390816105125790505b50905060008467ffffffffffffffff81111561054657610545611cea565b5b6040519080825280602002602001820160405280156105745781602001602082028036833780820191505090505b5090506000805b6002805490508110156109505760006002828154811061059e5761059d611ed6565b5b9060005260206000200160009054906101000a900473ffffffffffffffffffffffffffffffffffffffff16905060008060008373ffffffffffffffffffffffffffffffffffffffff1673ffffffffffffffffffffffffffffffffffffffff16815260200190815260200160002060020160003373ffffffffffffffffffffffffffffffffffffffff1673ffffffffffffffffffffffffffffffffffffffff16815260200190815260200160002080548060200260200160405190810160405280929190818152602001828054801561069557602002820191906000526020600020905b815481526020019060010190808311610681575b5050505050905060005b815181101561093a5760008060008573ffffffffffffffffffffffffffffffffffffffff1673ffffffffffffffffffffffffffffffffffffffff1681526020019081526020016000206001018383815181106106fe576106fd611ed6565b5b60200260200101518154811061071757610716611ed6565b5b906000526020600020906003020160405180606001604052908160008201805461074090611fdf565b80601f016020809104026020016040519081016040528092919081815260200182805461076c90611fdf565b80156107b95780601f1061078e576101008083540402835291602001916107b9565b820191906000526020600020905b81548152906001019060200180831161079c57829003601f168201915b505050505081526020016001820180546107d290611fdf565b80601f01602080910402602001604051908101604052809291908181526020018280546107fe90611fdf565b801561084b5780601f106108205761010080835404028352916020019161084b565b820191906000526020600020905b81548152906001019060200180831161082e57829003601f168201915b505050505081526020016002820154815250509050838a878151811061087457610873611ed6565b5b602002602001019073ffffffffffffffffffffffffffffffffffffffff16908173ffffffffffffffffffffffffffffffffffffffff168152505080600001518987815181106108c6576108c5611ed6565b5b602002602001018190525080602001518887815181106108e9576108e8611ed6565b5b6020026020010181905250806040015187878151811061090c5761090b611ed6565b5b602002602001018181525050858061092390611f68565b96505050808061093290611f68565b91505061069f565b505050808061094890611f68565b91505061057b565b5084848484995099509950995050505050505090919293565b6060600160008373ffffffffffffffffffffffffffffffffffffffff1673ffffffffffffffffffffffffffffffffffffffff16815260200190815260200160002080546109b590611fdf565b80601f01602080910402602001604051908101604052809291908181526020018280546109e190611fdf565b8015610a2e5780601f10610a0357610100808354040283529160200191610a2e565b820191906000526020600020905b815481529060010190602001808311610a1157829003601f168201915b50505050509050919050565b60606000808373ffffffffffffffffffffffffffffffffffffffff1673ffffffffffffffffffffffffffffffffffffffff16815260200190815260200160002060020160003373ffffffffffffffffffffffffffffffffffffffff1673ffffffffffffffffffffffffffffffffffffffff168152602001908152602001600020805480602002602001604051908101604052809291908181526020018280548015610b0457602002820191906000526020600020905b815481526020019060010190808311610af0575b50505050509050919050565b60016020528060005260406000206000915090508054610b2f90611fdf565b80601f0160208091040260200160405190810160405280929190818152602001828054610b5b90611fdf565b8015610ba85780601f10610b7d57610100808354040283529160200191610ba8565b820191906000526020600020905b815481529060010190602001808311610b8b57829003601f168201915b505050505081565b60608173ffffffffffffffffffffffffffffffffffffffff163373ffffffffffffffffffffffffffffffffffffffff161480610bf25750610bf18233610dfd565b5b610c31576040517f08c379a0000000000000000000000000000000000000000000000000000000008152600401610c289061205c565b60405180910390fd5b6000808373ffffffffffffffffffffffffffffffffffffffff1673ffffffffffffffffffffffffffffffffffffffff168152602001908152602001600020600101805480602002602001604051908101604052809291908181526020016000905b82821015610df25783829060005260206000209060030201604051806060016040529081600082018054610cc590611fdf565b80601f0160208091040260200160405190810160405280929190818152602001828054610cf190611fdf565b8015610d3e5780601f10610d1357610100808354040283529160200191610d3e565b820191906000526020600020905b815481529060010190602001808311610d2157829003601f168201915b50505050508152602001600182018054610d5790611fdf565b80601f0160208091040260200160405190810160405280929190818152602001828054610d8390611fdf565b8015610dd05780601f10610da557610100808354040283529160200191610dd0565b820191906000526020600020905b815481529060010190602001808311610db357829003601f168201915b5050505050815260200160028201548152505081526020019060010190610c92565b505050509050919050565b6000806000808573ffffffffffffffffffffffffffffffffffffffff1673ffffffffffffffffffffffffffffffffffffffff16815260200190815260200160002060020160008473ffffffffffffffffffffffffffffffffffffffff1673ffffffffffffffffffffffffffffffffffffffff1681526020019081526020016000208054905011905092915050565b60028181548110610e9b57600080fd5b906000526020600020016000915054906101000a900473ffffffffffffffffffffffffffffffffffffffff1681565b7fdc3b9d7fd28cfc7a70a999f2eb4b60672e6b88c8ed3280f4fb467b501b62b92e600160003373ffffffffffffffffffffffffffffffffffffffff1673ffffffffffffffffffffffffffffffffffffffff168152602001908152602001600020604051610f37919061211f565b604051809103902014610f7f576040517f08c379a0000000000000000000000000000000000000000000000000000000008152600401610f7690612182565b60405180910390fd5b6000803373ffffffffffffffffffffffffffffffffffffffff1673ffffffffffffffffffffffffffffffffffffffff168152602001908152602001600020600101805490508110611005576040517f08c379a0000000000000000000000000000000000000000000000000000000008152600401610ffc906121ee565b60405180910390fd5b6000803373ffffffffffffffffffffffffffffffffffffffff1673ffffffffffffffffffffffffffffffffffffffff16815260200190815260200160002060020160008373ffffffffffffffffffffffffffffffffffffffff1673ffffffffffffffffffffffffffffffffffffffff1681526020019081526020016000208190806001815401808255809150506001900390600052602060002001600090919091909150556000803373ffffffffffffffffffffffffffffffffffffffff1673ffffffffffffffffffffffffffffffffffffffff16815260200190815260200160002060040160008373ffffffffffffffffffffffffffffffffffffffff1673ffffffffffffffffffffffffffffffffffffffff16815260200190815260200160002060009054906101000a900460ff16611274576000803373ffffffffffffffffffffffffffffffffffffffff1673ffffffffffffffffffffffffffffffffffffffff168152602001908152602001600020600301829080600181540180825580915050600190039060005260206000200160009091909190916101000a81548173ffffffffffffffffffffffffffffffffffffffff021916908373ffffffffffffffffffffffffffffffffffffffff16021790555060016000803373ffffffffffffffffffffffffffffffffffffffff1673ffffffffffffffffffffffffffffffffffffffff16815260200190815260200160002060040160008473ffffffffffffffffffffffffffffffffffffffff1673ffffffffffffffffffffffffffffffffffffffff16815260200190815260200160002060006101000a81548160ff0219169083151502179055505b5050565b7fdc3b9d7fd28cfc7a70a999f2eb4b60672e6b88c8ed3280f4fb467b501b62b92e600160003373ffffffffffffffffffffffffffffffffffffffff1673ffffffffffffffffffffffffffffffffffffffff1681526020019081526020016000206040516112e5919061211f565b60405180910390201461132d576040517f08c379a000000000000000000000000000000000000000000000000000000000815260040161132490612182565b60405180910390fd5b600060405180606001604052808481526020018381526020014281525090506000803373ffffffffffffffffffffffffffffffffffffffff1673ffffffffffffffffffffffffffffffffffffffff16815260200190815260200160002060010181908060018154018082558091505060019003906000526020600020906003020160009091909190915060008201518160000190816113cc91906123ba565b5060208201518160010190816113e291906123ba565b50604082015181600201555050505050565b6000600160003373ffffffffffffffffffffffffffffffffffffffff1673ffffffffffffffffffffffffffffffffffffffff168152602001908152602001600020805461144090611fdf565b905014611482576040517f08c379a0000000000000000000000000000000000000000000000000000000008152600401611479906124d8565b60405180910390fd5b80600160003373ffffffffffffffffffffffffffffffffffffffff1673ffffffffffffffffffffffffffffffffffffffff16815260200190815260200160002090816114ce91906123ba565b507fdc3b9d7fd28cfc7a70a999f2eb4b60672e6b88c8ed3280f4fb467b501b62b92e8180519060200120036115e157336000803373ffffffffffffffffffffffffffffffffffffffff1673ffffffffffffffffffffffffffffffffffffffff16815260200190815260200160002060000160006101000a81548173ffffffffffffffffffffffffffffffffffffffff021916908373ffffffffffffffffffffffffffffffffffffffff1602179055506002339080600181540180825580915050600190039060005260206000200160009091909190916101000a81548173ffffffffffffffffffffffffffffffffffffffff021916908373ffffffffffffffffffffffffffffffffffffffff1602179055505b50565b600081519050919050565b600082825260208201905092915050565b6000819050602082019050919050565b600073ffffffffffffffffffffffffffffffffffffffff82169050919050565b600061163b82611610565b9050919050565b61164b81611630565b82525050565b600061165d8383611642565b60208301905092915050565b6000602082019050919050565b6000611681826115e4565b61168b81856115ef565b935061169683611600565b8060005b838110156116c75781516116ae8882611651565b97506116b983611669565b92505060018101905061169a565b5085935050505092915050565b600060208201905081810360008301526116ee8184611676565b905092915050565b600081519050919050565b600082825260208201905092915050565b6000819050602082019050919050565b600081519050919050565b600082825260208201905092915050565b60005b8381101561175c578082015181840152602081019050611741565b60008484015250505050565b6000601f19601f8301169050919050565b600061178482611722565b61178e818561172d565b935061179e81856020860161173e565b6117a781611768565b840191505092915050565b60006117be8383611779565b905092915050565b6000602082019050919050565b60006117de826116f6565b6117e88185611701565b9350836020820285016117fa85611712565b8060005b85811015611836578484038952815161181785826117b2565b9450611822836117c6565b925060208a019950506001810190506117fe565b50829750879550505050505092915050565b600081519050919050565b600082825260208201905092915050565b6000819050602082019050919050565b6000819050919050565b61188781611874565b82525050565b6000611899838361187e565b60208301905092915050565b6000602082019050919050565b60006118bd82611848565b6118c78185611853565b93506118d283611864565b8060005b838110156119035781516118ea888261188d565b97506118f5836118a5565b9250506001810190506118d6565b5085935050505092915050565b6000608082019050818103600083015261192a8187611676565b9050818103602083015261193e81866117d3565b9050818103604083015261195281856117d3565b9050818103606083015261196681846118b2565b905095945050505050565b6000604051905090565b600080fd5b600080fd5b61198e81611630565b811461199957600080fd5b50565b6000813590506119ab81611985565b92915050565b6000602082840312156119c7576119c661197b565b5b60006119d58482850161199c565b91505092915050565b600082825260208201905092915050565b60006119fa82611722565b611a0481856119de565b9350611a1481856020860161173e565b611a1d81611768565b840191505092915050565b60006020820190508181036000830152611a4281846119ef565b905092915050565b60006020820190508181036000830152611a6481846118b2565b905092915050565b600081519050919050565b600082825260208201905092915050565b6000819050602082019050919050565b60006060830160008301518482036000860152611ab58282611779565b91505060208301518482036020860152611acf8282611779565b9150506040830151611ae4604086018261187e565b508091505092915050565b6000611afb8383611a98565b905092915050565b6000602082019050919050565b6000611b1b82611a6c565b611b258185611a77565b935083602082028501611b3785611a88565b8060005b85811015611b735784840389528151611b548582611aef565b9450611b5f83611b03565b925060208a01995050600181019050611b3b565b50829750879550505050505092915050565b60006020820190508181036000830152611b9f8184611b10565b905092915050565b60008060408385031215611bbe57611bbd61197b565b5b6000611bcc8582860161199c565b9250506020611bdd8582860161199c565b9150509250929050565b60008115159050919050565b611bfc81611be7565b82525050565b6000602082019050611c176000830184611bf3565b92915050565b611c2681611874565b8114611c3157600080fd5b50565b600081359050611c4381611c1d565b92915050565b600060208284031215611c5f57611c5e61197b565b5b6000611c6d84828501611c34565b91505092915050565b611c7f81611630565b82525050565b6000602082019050611c9a6000830184611c76565b92915050565b60008060408385031215611cb757611cb661197b565b5b6000611cc58582860161199c565b9250506020611cd685828601611c34565b9150509250929050565b600080fd5b600080fd5b7f4e487b7100000000000000000000000000000000000000000000000000000000600052604160045260246000fd5b611d2282611768565b810181811067ffffffffffffffff82111715611d4157611d40611cea565b5b80604052505050565b6000611d54611971565b9050611d608282611d19565b919050565b600067ffffffffffffffff821115611d8057611d7f611cea565b5b611d8982611768565b9050602081019050919050565b82818337600083830152505050565b6000611db8611db384611d65565b611d4a565b905082815260208101848484011115611dd457611dd3611ce5565b5b611ddf848285611d96565b509392505050565b600082601f830112611dfc57611dfb611ce0565b5b8135611e0c848260208601611da5565b91505092915050565b60008060408385031215611e2c57611e2b61197b565b5b600083013567ffffffffffffffff811115611e4a57611e49611980565b5b611e5685828601611de7565b925050602083013567ffffffffffffffff811115611e7757611e76611980565b5b611e8385828601611de7565b9150509250929050565b600060208284031215611ea357611ea261197b565b5b600082013567ffffffffffffffff811115611ec157611ec0611980565b5b611ecd84828501611de7565b91505092915050565b7f4e487b7100000000000000000000000000000000000000000000000000000000600052603260045260246000fd5b7f4e487b7100000000000000000000000000000000000000000000000000000000600052601160045260246000fd5b6000611f3f82611874565b9150611f4a83611874565b9250828201905080821115611f6257611f61611f05565b5b92915050565b6000611f7382611874565b91507fffffffffffffffffffffffffffffffffffffffffffffffffffffffffffffffff8203611fa557611fa4611f05565b5b600182019050919050565b7f4e487b7100000000000000000000000000000000000000000000000000000000600052602260045260246000fd5b60006002820490506001821680611ff757607f821691505b60208210810361200a57612009611fb0565b5b50919050565b7f4e6f7420617574686f72697a6564000000000000000000000000000000000000600082015250565b6000612046600e836119de565b915061205182612010565b602082019050919050565b6000602082019050818103600083015261207581612039565b9050919050565b600081905092915050565b60008190508160005260206000209050919050565b600081546120a981611fdf565b6120b3818661207c565b945060018216600081146120ce57600181146120e357612116565b60ff1983168652811515820286019350612116565b6120ec85612087565b60005b8381101561210e578154818901526001820191506020810190506120ef565b838801955050505b50505092915050565b600061212b828461209c565b915081905092915050565b7f4f6e6c792070617469656e747320616c6c6f7765640000000000000000000000600082015250565b600061216c6015836119de565b915061217782612136565b602082019050919050565b6000602082019050818103600083015261219b8161215f565b9050919050565b7f496e76616c6964207265636f726420696e646578000000000000000000000000600082015250565b60006121d86014836119de565b91506121e3826121a2565b602082019050919050565b60006020820190508181036000830152612207816121cb565b9050919050565b60008190508160005260206000209050919050565b60006020601f8301049050919050565b600082821b905092915050565b6000600883026122707fffffffffffffffffffffffffffffffffffffffffffffffffffffffffffffffff82612233565b61227a8683612233565b95508019841693508086168417925050509392505050565b6000819050919050565b60006122b76122b26122ad84611874565b612292565b611874565b9050919050565b6000819050919050565b6122d18361229c565b6122e56122dd826122be565b848454612240565b825550505050565b600090565b6122fa6122ed565b6123058184846122c8565b505050565b5b818110156123295761231e6000826122f2565b60018101905061230b565b5050565b601f82111561236e5761233f8161220e565b61234884612223565b81016020851015612357578190505b61236b61236385612223565b83018261230a565b50505b505050565b600082821c905092915050565b600061239160001984600802612373565b1980831691505092915050565b60006123aa8383612380565b9150826002028217905092915050565b6123c382611722565b67ffffffffffffffff8111156123dc576123db611cea565b5b6123e68254611fdf565b6123f182828561232d565b600060209050601f8311600181146124245760008415612412578287015190505b61241c858261239e565b865550612484565b601f1984166124328661220e565b60005b8281101561245a57848901518255600182019150602085019450602081019050612435565b868310156124775784890151612473601f891682612380565b8355505b6001600288020188555050505b505050505050565b7f416c726561647920726567697374657265640000000000000000000000000000600082015250565b60006124c26012836119de565b91506124cd8261248c565b602082019050919050565b600060208201905081810360008301526124f1816124b5565b905091905056fea2646970667358221220b8dda1dc64374b807da58a3dbf0b9568a22070ab479856abc41031a713ce425b64736f6c63430008130033",
  "immutableReferences": {},
  "source": "// SPDX-License-Identifier: MIT\r\npragma solidity ^0.8.19;\r\n\r\ncontract EHR {\r\n    struct Record {\r\n        string ipfsHash;\r\n        string category;\r\n        uint256 timestamp;\r\n    }\r\n\r\n    struct Patient {\r\n        address addr;\r\n        Record[] records;\r\n        mapping(address => uint[]) recordAccess; // doctor => array of record indices\r\n        address[] authorizedDoctors;\r\n        mapping(address => bool) isDoctorListed; // to avoid duplicates\r\n    }\r\n\r\n    mapping(address => Patient) private patients;\r\n    mapping(address => string) public roles;\r\n\r\n    address[] public patientAddresses;\r\n\r\n    modifier onlyPatient() {\r\n        require(keccak256(bytes(roles[msg.sender])) == keccak256(\"patient\"), \"Only patients allowed\");\r\n        _;\r\n    }\r\n\r\n    function register(string memory role) public {\r\n        require(bytes(roles[msg.sender]).length == 0, \"Already registered\");\r\n        roles[msg.sender] = role;\r\n\r\n        if (keccak256(bytes(role)) == keccak256(\"patient\")) {\r\n            patients[msg.sender].addr = msg.sender;\r\n            patientAddresses.push(msg.sender);\r\n        }\r\n    }\r\n\r\n    function addRecord(string memory ipfsHash, string memory category) public onlyPatient {\r\n        Record memory newRecord = Record(ipfsHash, category, block.timestamp);\r\n        patients[msg.sender].records.push(newRecord);\r\n    }\r\n\r\n    //  Grant access to a specific record\r\n    function giveAccessToDoctor(address doctor, uint recordIndex) public onlyPatient {\r\n        require(recordIndex < patients[msg.sender].records.length, \"Invalid record index\");\r\n        patients[msg.sender].recordAccess[doctor].push(recordIndex);\r\n\r\n        // Add doctor to authorizedDoctors list once\r\n        if (!patients[msg.sender].isDoctorListed[doctor]) {\r\n            patients[msg.sender].authorizedDoctors.push(doctor);\r\n            patients[msg.sender].isDoctorListed[doctor] = true;\r\n        }\r\n    }\r\n\r\n    function getRecords(address patientAddr) public view returns (Record[] memory) {\r\n        require(\r\n            msg.sender == patientAddr || isAuthorizedForAny(patientAddr, msg.sender),\r\n            \"Not authorized\"\r\n        );\r\n        return patients[patientAddr].records;\r\n    }\r\n\r\n    //  Modified to return only granted records\r\n    function getAccessibleRecords()\r\n        public\r\n        view\r\n        returns (\r\n            address[] memory,\r\n            string[] memory,\r\n            string[] memory,\r\n            uint256[] memory\r\n        )\r\n    {\r\n        uint total = 0;\r\n\r\n        // First count total accessible records\r\n        for (uint i = 0; i < patientAddresses.length; i++) {\r\n            uint[] memory indices = patients[patientAddresses[i]].recordAccess[msg.sender];\r\n            total += indices.length;\r\n        }\r\n\r\n        address[] memory patientList = new address[](total);\r\n        string[] memory ipfsHashes = new string[](total);\r\n        string[] memory categories = new string[](total);\r\n        uint256[] memory timestamps = new uint256[](total);\r\n\r\n        uint index = 0;\r\n        for (uint i = 0; i < patientAddresses.length; i++) {\r\n            address patient = patientAddresses[i];\r\n            uint[] memory indices = patients[patient].recordAccess[msg.sender];\r\n\r\n            for (uint j = 0; j < indices.length; j++) {\r\n                Record memory rec = patients[patient].records[indices[j]];\r\n                patientList[index] = patient;\r\n                ipfsHashes[index] = rec.ipfsHash;\r\n                categories[index] = rec.category;\r\n                timestamps[index] = rec.timestamp;\r\n                index++;\r\n            }\r\n        }\r\n\r\n        return (patientList, ipfsHashes, categories, timestamps);\r\n    }\r\n\r\n    // View if the doctor has access to any record from patient\r\n    function isAuthorizedForAny(address patient, address doctor) public view returns (bool) {\r\n        return patients[patient].recordAccess[doctor].length > 0;\r\n    }\r\n\r\n    function getAllPatients() public view returns (address[] memory) {\r\n        return patientAddresses;\r\n    }\r\n\r\n    function getRole(address user) public view returns (string memory) {\r\n        return roles[user];\r\n    }\r\n\r\n    //  View accessible record indices (for frontend filtering if needed)\r\n    function getAccessibleRecordIndices(address patient) public view returns (uint[] memory) {\r\n        return patients[patient].recordAccess[msg.sender];\r\n    }\r\n}\r\n",
  "sourcePath": "C:\\Users\\jyosh\\OneDrive\\Desktop\\ehr app\\truffle\\contracts\\EHR.sol",
  "compiler": {
    "name": "solc",
    "version": "0.8.19+commit.7dd6d404.Emscripten.clang"
  },
  "schemaVersion": "3.4.16",
  "updatedAt": "2025-04-17T00:12:32.708Z",
  "networkType": "ethereum",
  "devdoc": {
    "kind": "dev",
    "methods": {},
    "version": 1
  },
  "userdoc": {
    "kind": "user",
    "methods": {},
    "version": 1
  }
}